:10000000F01F00102501000099010000A10100006F
:10001000A9010000B1010000B901000000000000CA
:10002000000000000000000000000000C10100000E
:10003000C901000000000000D1010000D90100004A
:10004000E1010000E1010000E1010000E101000028
:10005000E1010000E1010000E1010000E101000018
:10006000E1010000E1010000E1010000E101000008
:10007000E1010000E1010000E1010000E1010000F8
:10008000E1010000E1010000E1010000E1010000E8
:10009000E1010000E1010000E1010000E1010000D8
:1000A000E1010000E1010000E1010000E1010000C8
:1000B000E1010000E1010000E1010000E1010000B8
:1000C000E1010000E1010000E1010000E1010000A8
:1000D000E1010000E1010000E1010000E101000098
:1000E000E1010000E1010000E1010000E101000088
:1000F000E1010000E1010000E10100008D040000C9
:10010000E1010000E1010000E1010000E101000067
:10011000E1010000E1010000E1010000E101000057
:10012000E101000080B582B000AF144B7B60144B3E
:100130003B6007E03B681A1D3A607A68111D7960E0
:1001400012681A603B680F4A9342F3D31048114972
:100150004FF000028842B8BF40F8042BFADB0A4B8C
:10016000002B01D0AFF30080084B002B02D0AFF37F
:10017000008001E000F006F9FEE700BF2405000062
:100180008001001084010010000000000000000049
:1001900084010010A401001080B400AFFEE700BF8E
:1001A00080B400AFFEE700BF80B400AFFEE700BF41
:1001B00080B400AFFEE700BF80B400AFFEE700BF31
:1001C00080B400AFFEE700BF80B400AFFEE700BF21
:1001D00080B400AFFEE700BF80B400AFFEE700BF11
:1001E00080B400AFFEE700BF80B400AF30BF00BFF7
:1001F000BD4680BC704700BF80B485B000AFF860DA
:10020000B9607A60094AFB6852F823300121BA6864
:1002100001FA02F27868B96800FA01F143F8221095
:1002200000BF1437BD4680BC704700BF14050000F6
:1002300080B485B000AFF860B9607A607B68002B4D
:1002400013D0164AFB6852F823301449FA6851F863
:10025000222002F5004212680120B96800FA01F17B
:100260000A4303F500431A6013E00C4AFB6852F896
:1002700023300A49FA6851F8222002F50042126838
:100280000120B96800FA01F1C9430A4003F50043AF
:100290001A6000BF1437BD4680BC704714050000CB
:1002A00080B485B000AF786039600023FB730E4BDB
:1002B00003F57F533C331B680B4B03F57F533C33F3
:1002C0001B68094B03F57F533C331B68064B03F552
:1002D0007F533C331B687B68FA7B1A7000BF14376E
:1002E000BD4680BC704700BF0000025080B584B09E
:1002F00000AF786039607B681B78FB73FB7B03F091
:100300000103002B05D0012200210220FFF774FF1A
:1003100004E0002200210220FFF76EFFFB7B03F0C8
:100320000203002B05D0012201210220FFF764FF08
:1003300004E0002201210220FFF75EFFFB7B03F0B7
:100340000403002B05D0012202210220FFF754FFF5
:1003500004E0002202210220FFF74EFFFB7B03F0A6
:100360000803002B05D0012203210220FFF744FFE0
:1003700004E0002203210220FFF73EFF00BF1037F8
:10038000BD4680BD80B582B000AF394B41F6C97221
:100390001A80374B03225A80354B4FF480729A8073
:1003A000344A334B9A60324B01221A73304B01228C
:1003B0005A732F4B20229A732D4B2F4A1A612C4BC4
:1003C0002E4A5A612E4B03221A80294A2C4B5A601E
:1003D000002204210220FFF72BFF0022052102202A
:1003E000FFF726FF002206210220FFF721FF00224F
:1003F00007210220FFF71CFF012200210220FFF746
:1004000017FF012201210220FFF712FF0122022122
:100410000220FFF70DFF012203210220FFF708FF52
:10042000184A184BD3F8803043F4A233C2F8803016
:10043000154B1B681B681B681B68984700237B6073
:1004400002E07B6801337B607B684A2BF9DD0E4B51
:100450001B681B681B689B68094898470A4B1B6808
:100460001B681B68DB6801209847FFF7BDFEFCE7AF
:100470008C010010A4040000A1020000ED020000A5
:1004800084010010008004408001001080B500AF9E
:10049000034B1B681B681B685B68984700BF80BDE7
:1004A000800100100403C91F1C037600690073005B
:1004B000750061006C0065002E0072007500200060
:1004C000200020002803560045002D00580043005E
:1004D000360053004C005800390020004800490005
:1004E0004400200020002000200020001A034400C7
:1004F00045004D004F00300030003000300030002B
:100500003000300030000E03480049004400200055
:1005100020002000000000500000015000000250A8
:040520000000035084
:04052400F81FFF1F9E
:0400000300000125D3
:00000001FF
